:020000040800F2
:1000000000000220012C0008B12A0008B32A0008D1
:10001000B52A0008B72A0008B92A00080000000025
:10002000000000000000000000000000BB2A0008E3
:10003000BD2A000800000000BF2A0008C12A0008ED
:10004000512C0008512C0008512C0008512C00089C
:10005000512C0008512C0008512C0008512C00088C
:10006000512C0008512C0008512C0008512C00087C
:10007000512C0008512C0008512C0008512C00086C
:10008000512C0008512C0008512C0008512C00085C
:10009000512C0008512C0008512C0008512C00084C
:1000A000512C0008512C0008512C0008512C00083C
:1000B000512C0008512C0008512C0008512C00082C
:1000C000512C0008512C0008512C0008512C00081C
:1000D000512C0008512C0008512C0008512C00080C
:1000E000512C0008512C0008512C0008512C0008FC
:1000F000512C0008512C0008512C0008512C0008EC
:10010000512C0008512C0008512C0008512C0008DB
:10011000512C0008512C0008512C0008512C0008CB
:10012000512C0008512C0008512C0008512C0008BB
:10013000512C0008512C0008512C0008512C0008AB
:10014000512C0008512C0008512C0008512C00089B
:10015000512C0008512C0008512C0008512C00088B
:10016000512C0008512C0008512C0008512C00087B
:10017000512C0008512C0008512C000800000000F0
:08018000512C0008512C00086D
:1001900001F0FF01102A2BDB10F0070F08D010F838
:1001A000013B013A8B422DD010F0070F42B3F6D13C
:1001B000F0B441EA012141EA014122F007047FF055
:1001C00000070023F0E80256083C85EA010586EAAC
:1001D000010685FA47F5A3FA87F586FA47F6A5FAE8
:1001E00087F68EB9EED1F0BC01F0FF0102F00702F4
:1001F00032B110F8013B013A83EA010313B1F8D19F
:100200000020704701387047002D06BF354603387F
:10021000073815F0010F07D1013015F4807F02BFB8
:10022000013015F4C03F0130F0BC0138704700BF09
:1002300081F0004102E000BF83F0004330B54FEA97
:1002400041044FEA430594EA050F08BF90EA020F04
:100250001FBF54EA000C55EA020C7FEA645C7FEA97
:10026000655C00F0E2804FEA5454D4EB5555B8BFBA
:100270006D420CDD2C4480EA020281EA030382EA2B
:10028000000083EA010180EA020281EA0303362DBD
:1002900088BF30BD11F0004F4FEA01314FF4801C90
:1002A0004CEA113102D0404261EB410113F0004FA2
:1002B0004FEA03334CEA133302D0524263EB430359
:1002C00094EA050F00F0A780A4F10104D5F1200EF7
:1002D0000DDB02FA0EFC22FA05F2801841F1000152
:1002E00003FA0EF2801843FA05F359410EE0A5F126
:1002F00020050EF1200E012A03FA0EFC28BF4CF057
:10030000020C43FA05F3C01851EBE37101F000450C
:1003100007D54FF0000EDCF1000C7EEB00006EEB19
:100320000101B1F5801F1BD3B1F5001F0CD34908A3
:100330005FEA30004FEA3C0C04F101044FEA4452FA
:1003400012F5800F80F09A80BCF1004F08BF5FEA81
:10035000500C50F1000041EB045141EA050130BD61
:100360005FEA4C0C404141EB0101013C28BFB1F573
:10037000801FE9D291F0000F04BF01460020B1FABE
:1003800081F308BF2033A3F10B03B3F120020CDA91
:100390000C3208DD02F1140CC2F10C0201FA0CF06F
:1003A00021FA02F10CE002F11402D8BFC2F1200CD4
:1003B00001FA02F120FA0CFCDCBF41EA0C0190408A
:1003C000E41AA2BF01EB0451294330BD6FEA0404D3
:1003D0001F3C1CDA0C340EDC04F11404C4F12002BE
:1003E00020FA04F001FA02F340EA030021FA04F3D0
:1003F00045EA030130BDC4F10C04C4F1200220FA27
:1004000002F001FA04F340EA0300294630BD21FA64
:1004100004F0294630BD94F0000F83F4801306BF2A
:1004200081F480110134013D4EE77FEA645C18BF1E
:100430007FEA655C29D094EA050F08BF90EA020FB5
:1004400005D054EA000C04BF1946104630BD91EAAD
:10045000030F1EBF0021002030BD5FEA545C05D1B0
:100460004000494128BF41F0004130BD14F58004EF
:100470003CBF01F5801130BD01F0004545F0FE4163
:1004800041F470014FF0000030BD7FEA645C1ABF98
:10049000194610467FEA655C1CBF0B46024650EACF
:1004A000013406BF52EA033591EA030F41F40021FB
:1004B00030BD00BF90F0000F04BF0021704730B581
:1004C0004FF4806404F132044FF000054FF0000156
:1004D00050E700BF90F0000F04BF0021704730B517
:1004E0004FF4806404F1320410F0004548BF4042EC
:1004F0004FF000013EE700BF42004FEAE2014FEA41
:1005000031014FEA02701FBF12F07F4393F07F4F1B
:1005100081F06051704732F07F4208BF704793F01E
:100520007F4F04BF41F40021704730B54FF4607431
:1005300001F0004521F000411CE700BF50EA010234
:1005400008BF704730B54FF000050AE050EA0102DD
:1005500008BF704730B511F0004502D5404261EB4D
:1005600041014FF4806404F132045FEA915C3FF48E
:10057000D8AE4FF003025FEADC0C18BF03325FEA2B
:10058000DC0C18BF033202EBDC02C2F1200300FADC
:1005900003FC20FA02F001FA03FE40EA0E0021FA01
:1005A00002F11444BDE600BF70B54FF0FF0C4CF4EF
:1005B000E06C1CEA11541DBF1CEA135594EA0C0FA1
:1005C00095EA0C0F00F0DEF82C4481EA030621EADC
:1005D0004C5123EA4C5350EA013518BF52EA033517
:1005E00041F4801143F4801338D0A0FB02CE4FF0C9
:1005F0000005E1FB02E506F00042E0FB03E54FF0F9
:100600000006E1FB03569CF0000F18BF4EF0010EF0
:10061000A4F1FF04B6F5007F64F5407404D25FEAEC
:100620004E0E6D4146EB060642EAC62141EA55519F
:100630004FEAC52040EA5E504FEACE2EB4F1FD0CE1
:1006400088BFBCF5E06F1ED8BEF1004F08BF5FEA5F
:10065000500E50F1000041EB045170BD06F0004611
:1006600046EA010140EA020081EA0301B4EB5C04BE
:10067000C2BFD4EB0C0541EA045170BD41F48011B6
:100680004FF0000E013C00F3AB8014F1360FDEBFDB
:10069000002001F0004170BDC4F10004203C35DAB7
:1006A0000C341BDC04F11404C4F1200500FA05F33A
:1006B00020FA04F001FA05F240EA020001F00042DB
:1006C00021F0004110EBD37021FA04F642EB060151
:1006D0005EEA430E08BF20EAD37070BDC4F10C047B
:1006E000C4F1200500FA04F320FA05F001FA04F23F
:1006F00040EA020001F0004110EBD37041F100012B
:100700005EEA430E08BF20EAD37070BDC4F1200535
:1007100000FA05F24EEA020E20FA04F301FA05F29D
:1007200043EA020321FA04F001F0004121FA04F245
:1007300020EA020000EBD3705EEA430E08BF20EA15
:10074000D37070BD94F0000F0FD101F0004640004F
:1007500041EB010111F4801F08BF013CF7D041EAD1
:10076000060195F0000F18BF704703F000465200D5
:1007700043EB030313F4801F08BF013DF7D043EAA6
:100780000603704794EA0C0F0CEA135518BF95EA5C
:100790000C0F0CD050EA410618BF52EA4306D1D1E3
:1007A00081EA030101F000414FF0000070BD50EA02
:1007B000410606BF1046194652EA430619D094EA8C
:1007C0000C0F02D150EA013613D195EA0C0F05D176
:1007D00052EA03361CBF104619460AD181EA0301CA
:1007E00001F0004141F0FE4141F470014FF0000082
:1007F00070BD41F0FE4141F4780170BD70B54FF01D
:10080000FF0C4CF4E06C1CEA11541DBF1CEA13559C
:1008100094EA0C0F95EA0C0F00F0A7F8A4EB05047E
:1008200081EA030E52EA03354FEA013100F0888075
:100830004FEA03334FF0805545EA131343EA12633E
:100840004FEA022245EA111545EA10654FEA0026F3
:100850000EF000419D4208BF964244F1FD0404F5AC
:10086000407402D25B084FEA3202B61A65EB030508
:100870005B084FEA32024FF480104FF4002CB6EBC5
:10088000020E75EB030E22BFB61A754640EA0C0045
:100890005B084FEA3202B6EB020E75EB030E22BF85
:1008A000B61A754640EA5C005B084FEA3202B6EBC6
:1008B000020E75EB030E22BFB61A754640EA9C0085
:1008C0005B084FEA3202B6EB020E75EB030E22BF55
:1008D000B61A754640EADC0055EA060E18D04FEA13
:1008E000051545EA16754FEA06164FEAC30343EAB3
:1008F00052734FEAC2025FEA1C1CC0D111F4801F80
:100900000BD141EA00014FF000004FF0004CB6E778
:1009100011F4801F04BF01430020B4F1FD0C88BF17
:10092000BCF5E06F3FF6AFAEB5EB030C04BFB6EB22
:10093000020C5FEA500C50F1000041EB045170BD15
:100940000EF0004E4EEA113114EB5C04C2BFD4EB42
:100950000C0541EA045170BD41F480114FF0000EC6
:10096000013C90E645EA060E8DE60CEA135594EA42
:100970000C0F08BF95EA0C0F3FF43BAF94EA0C0F45
:100980000AD150EA01347FF434AF95EA0C0F7FF4BA
:1009900025AF104619462CE795EA0C0F06D152EA0E
:1009A00003353FF4FDAE1046194622E750EA4106F2
:1009B00018BF52EA43067FF4C5AE50EA41047FF403
:1009C0000DAF52EA43057FF4EBAE12E74A0011D2B5
:1009D00012F5001211D20DD56FF47873B3EB625299
:1009E0000ED44FEAC12343F0004343EA505323FAA5
:1009F00002F070474FF00000704750EA013002D11A
:100A00004FF0FF3070474FF0000070474FEA41024F
:100A1000B2F1E04324BFB3F5001CDCF1FE5C0DD95C
:100A200001F0004C4FEAC0024CEA5070B2F1004FA6
:100A300040EB830008BF20F00100704711F0804FA9
:100A400021D113F13872BCBF01F00040704741F46E
:100A500080114FEA5252C2F11802C2F1200C10FA72
:100A60000CF320FA02F018BF40F001004FEAC12356
:100A70004FEAD32303FA0CFC40EA0C0023FA02F3FA
:100A80004FEA4303CCE77FEA625307D150EA0133D0
:100A90001EBF4FF0FE4040F44000704701F00040A0
:100AA00040F0FE4040F40000704700BF53B94AB91F
:100AB000002908BF00281CBF4FF0FF314FF0FF3066
:100AC00000F00CB8ADF1080C6DE904CE03F04AF863
:100AD000DDF804E0DDE9022304B07047704700BF91
:100AE00010B5054C237833B9044B13B10448AFF368
:100AF00000800123237010BD68000020000000006A
:100B00005C3E000808B5034B1BB103490348AFF333
:100B1000008008BD000000006C0000205C3E000862
:100B200084B000220192104B196B41F080011963CF
:100B3000196B01F08001019101990292196B41F04A
:100B400001011963196B01F00101029102990392ED
:100B50001A6B42F002021A631B6B03F00203039349
:100B6000039B04B0704700BF0038024008B50B4833
:100B70000B4B03600B4B436000238360C3604FF457
:100B80008042026143618361C361036200F0E4FE5D
:100B900000B908BD00F076F9FBE700BF8400002033
:100BA00000580040A086010030B589B000230393AF
:100BB00004930593069307930268144B9A4201D05D
:100BC00009B030BD00250195114C236B43F00203A1
:100BD0002363236B03F002030193019B4FF44063F3
:100BE000039312230493032306930423079303A977
:100BF000084800F05DFB0295236C43F480032364F6
:100C0000236C03F480030293029BD9E70058004051
:100C1000003802400004024070B586B004468DF8EA
:100C20000F100023ADF8143001780D4D4FF0FF3652
:100C3000009601230DF10F029940284600F06AFF4B
:100C400021780096022305AA4900284601F01CF8E5
:100C50009DF814009DF8153043EA002006B070BDE1
:100C6000840000200000000008B50221FFF7D4FF37
:100C7000C0F3CF00FFF72EFC05A3D3E90023FFF755
:100C800093FCFFF7C3FE00EE100A08BDAFF300802F
:100C9000FCA9F1D24D62703F08B50421FFF7BCFFFB
:100CA00000B207EE900AB8EEE70A034BD3ED007AE4
:100CB00020EE270A08BD00BFD80000200000000079
:100CC00008B50121FFF7A8FF00B207EE900AF8EE81
:100CD000E77A17EE900AFFF70FFC05A3D3E900238C
:100CE000FFF762FCFFF792FE00EE100A08BD00BF9E
:100CF000F168E388B5F8E43E08B50321FFF78CFFFF
:100D000003B207EE903AF8EEE77AB3EE047A67EEB4
:100D1000877A034B93ED000A27EE800A08BD00BFD7
:100D2000D800002000B585B08DF80C10130A8DF89E
:100D30000D308DF80E2001784FF0FF330093032320
:100D400003AA4900044800F0E5FE18B9012005B0E7
:100D50005DF804FB0020FAE78400002010B504468B
:100D60004FF400420021FFF7DDFF78B10F4802F099
:100D70009DF800212046FFF74FFF43F69F1398424E
:100D800008D00B4802F092F8002010BD094802F08C
:100D90008DF8EEE7084B43F69F121A80074B0022AE
:100DA0001A60074802F082F80120EEE7743E00085E
:100DB000B03E0008883E000800000020D800002057
:100DC000A03E000808B5FFF7C9FF08BD00000000FD
:100DD00038B52DED028B0546DFED177A20EE278A18
:100DE00068EE207A17EE900AFFF786FB02460B4664
:100DF0000FA1D1E90001FFF701FDFFF7E7FD84B284
:100E0000224605212846FFF78DFF05212846FFF7DA
:100E100003FF24F00104844203D00020BDEC028BC8
:100E200038BD064B83ED008A0120F7E7AFF3008061
:100E3000F168E388B5F8A43F00000038D80000202E
:100E400038B505460C460A460021FFF76BFF002126
:100E50002846FFF7E1FEA04201D0002038BD024B3A
:100E60001C800120FAE700BF0000002010B51446E6
:100E70004FF0FF3392B2024801F0B5FD204610BD9D
:100E8000EC00002072B6FEE710B594B008AC30223A
:100E90000021204602F0E8F8002303930493059311
:100EA000069307930193184A116C41F08051116425
:100EB000126C02F080520192019A0293134A116857
:100EC00041F480411160126802F480420292029A59
:100ED000012208924FF4803209920E93204601F0CD
:100EE00033F968B90F23039301230493002105917B
:100EF0000691079103A801F077FB18B914B010BD53
:100F0000FFF7C0FFFFF7BEFF00380240007000404F
:100F100030B52DED0A8B83B000F020F9FFF7B4FF58
:100F2000FFF7FEFD01F01AFEFFF720FE654801F015
:100F3000BDFF012401E00134E4B27E2C0DD80A2368
:100F4000012204FA02F1604801F01CF80028F2D1F5
:100F500021465E4801F042FFEDE75D4801F0A6FF43
:100F60005C4840230370FFF72DFFF8B15A4801F0A9
:100F70009DFF5A4841230370FFF724FFD0B1584822
:100F800001F094FF534DDFED570AB0EE040A2846F6
:100F9000FFF71EFF044641F69F112846FFF750FF5A
:100FA00004B158B9504801F081FFFEE74F4801F005
:100FB0007DFFDEE74E4801F079FFE3E74D4801F0A1
:100FC00075FF464DDFED470AB0EE040A2846FFF7ED
:100FD000FFFE044641F69F112846FFF731FF04B19A
:100FE00018B9454801F062FFFEE7444801F05EFF92
:100FF000384C2046FFF738FEB0EE40AA2046FFF7F7
:101000005FFEF0EE40AA2046FFF746FEB0EE40BA83
:101010002046FFF771FEB0EE409A304C2046FFF7B5
:1010200023FEF0EE409A2046FFF74AFEF0EE40BA6B
:101030002046FFF731FEB0EE40CA2046FFF75CFEC7
:10104000F0EE408A9FED2E8A2AEE08AA6AEE88AA60
:101050002BEE08BA29EE089ABDEEC99A8DED009ADA
:10106000FDEECB7A17EE903AFDEEEA7A17EE902A73
:10107000FDEECA7A17EE901A224801F0AFFE69EE33
:10108000889A6BEE88BA2CEE08CA68EE888AFDEE64
:10109000E88ACDED008AFDEECC7A17EE903AFDEEAF
:1010A000EB7A17EE902AFDEEE97A17EE901A1648C1
:1010B00001F094FE154801F0F9FE4FF47A7000F04B
:1010C00079F895E7C03E000884000020D43E00086F
:1010D000EC3E0008E0000020043F0008DC00002097
:1010E000403F0008CDCCCC3DA03F0008243F000885
:1010F000603F00087C3F0008E43F0008C03F000854
:1011000000007A44044000083C4000087440000895
:1011100010B504460E4B1A784FF47A73B3FBF2F312
:101120000C4A1068B0FBF3F000F0AEF868B90F2C71
:1011300001D901200AE0002221464FF0FF3000F0E3
:1011400093F8054B1C60002000E0012010BD00BF9B
:1011500002000020080000200400002008B50B4B0E
:101160001A6842F400721A601A6842F480621A60C7
:101170001A6842F480721A60032000F063F80F20AE
:10118000FFF7C6FF00F0C4FF002008BD003C02408E
:10119000034A1168034B1B780B441360704700BF70
:1011A000E400002002000020014B1868704700BFD7
:1011B000E400002038B50446FFF7F6FF0546B4F119
:1011C000FF3F02D0044B1B781C44FFF7EDFF401B90
:1011D000A042FAD338BD00BF02000020002808DB7F
:1011E0000901C9B200F1604000F5614080F80013C8
:1011F000704700F00F000901C9B2014B1954704744
:1012000014ED00E000B500F00700C0F1070CBCF1E0
:10121000040F28BF4FF0040C031D062B0FD9C31E6B
:101220004FF0FF3E0EFA0CF021EA000199400EFA51
:1012300003FE22EA0E0241EA02005DF804FB0023ED
:10124000EEE70000074AD36823F4E0631B041B0C9D
:10125000000200F4E060034343F0BF6343F4003353
:10126000D360704700ED00E010B50446054BD86828
:10127000C0F30220FFF7C6FF01462046FFF7AEFF8E
:1012800010BD00BF00ED00E00138B0F1807F0BD24F
:101290004FF0E0235861054AF02182F82310002026
:1012A000986107221A6170470120704700ED00E045
:1012B00000230F2B00F2E98070B582B065E08568ED
:1012C0004FEA430E032404FA0EF425EA0405CC6821
:1012D00004FA0EF42C438460446824EA02044A6849
:1012E000C2F300129A40224342605CE0DC080834FA
:1012F00050F8242003F00705AD004FF00F0E0EFA52
:1013000005FE22EA0E0E0A69AA4042EA0E0240F8E1
:1013100024205CE0072200E0002202FA0EF22A43B9
:1013200002345A4D45F82420594A94686FEA0C0259
:1013300024EA0C054E6816F4801F01D04CEA04051F
:10134000534CA560E46802EA04054E6816F4001FD9
:1013500001D04CEA04054E4CE560646802EA0405DD
:101360004E6816F4003F01D04CEA0405484C656015
:10137000246822404D6815F4803F01D04CEA0402F5
:10138000434C226001330F2B7DD801229A400C6818
:1013900004EA020C32EA0404F4D14C6804F00304B9
:1013A000013C012C8BD94A6802F00302032A09D0C0
:1013B000C4685D000322AA4024EA02048A68AA40A5
:1013C0002243C2604A6802F00302022A8ED00468F7
:1013D0004FEA430E032202FA0EF224EA02044A689C
:1013E00002F0030202FA0EF2224302604A6812F48B
:1013F000403FC7D000220192264A546C44F48044F6
:101400005464526C02F480420192019A9C08A51C1B
:101410001E4A52F8255003F0030E4FEA8E0E0F229B
:1014200002FA0EF225EA02051B4A90423FF474AF1D
:1014300002F5806290421AD002F58062904218D084
:1014400002F58062904216D002F58062904214D07C
:1014500002F58062904212D002F58062904210D074
:1014600002F5806290423FF455AF082255E7012211
:1014700053E7022251E703224FE704224DE70522FA
:101480004BE7062249E702B070BD704700380140C3
:10149000003C0140003802400000024003685A69E5
:1014A00012F4806F01D1002070476FF480625A619E
:1014B00000230363202280F83D2080F83E30026C38
:1014C00042F00402026480F83C30012070472DE9AC
:1014D000F04106460C46174698463BE0FFF764FE8F
:1014E000069BC01A404502D8B8F1000F32D1012D39
:1014F00018D033689B6924EA03039BB2B3FA83F3E1
:101500005B099F4226D100233363202286F83D20C9
:1015100086F83E30326C42F02002326486F83C306D
:10152000012027E033685B6924EA03039BB2B3FA26
:1015300083F35B09E5E733685B6924EA030C1FFA70
:101540008CFCBCFA8CFC4FEA5C1C674511D1B8F1ED
:10155000FF3FC3D1C4F30745012DECD033689B692D
:1015600024EA030C1FFA8CFCBCFA8CFC4FEA5C1CCE
:10157000EBE70020BDE8F0812DE9F84305460E4673
:101580009046994653E01A6842F400721A602B683C
:101590006FF480625A6100232B63202285F83D207E
:1015A00085F83E302A6C42F004022A6485F83C300B
:1015B00001204AE0FFF7F8FDA0EB0900404502D802
:1015C000B8F1000F33D1012F17D02B689B6926EAA1
:1015D00003039BB2003B18BF012343B300232B63DB
:1015E000202285F83D2085F83E302A6C42F020020A
:1015F0002A6485F83C30012027E02B685B6926EAE5
:1016000003039BB2003B18BF0123E6E72B689C69EC
:1016100026EA0404A4B2003C18BF0124A4B12B683C
:101620005A6912F4806FAED1B8F1FF3FC2D1C6F350
:101630000747012FEAD12B685C6926EA0404A4B2AB
:10164000003C18BF0124E9E70020BDE8F883000052
:10165000F0B583B004460D4616461F46C36A082BF4
:101660000DD0012B0BD013F5803F08D0036B122B4C
:101670000AD10268136843F48073136004E022689F
:10168000136843F4807313600097334600224FF0D1
:1016900001112046FFF71BFF80B92369B3F5804F86
:1016A00016D1236805F0FE051D613B4632461349FD
:1016B0002046FFF761FFF8B903B0F0BD23681B684F
:1016C00013F4807F02D04FF4007323640320F3E708
:1016D000EB11226803F0060343F0F00313613B466D
:1016E000324607492046FFF747FF18B92368EDB295
:1016F0001D61DAE70120DFE70120DDE702000100DC
:10170000080001002DE9F04184B004460D4616465C
:101710001F46C26A01680B6843F480630B60082AA5
:101720000DD0012A0BD012F5803F08D0036B112B8E
:101730000AD10268136843F48073136004E02268DE
:10174000136843F4807313600097334600224FF010
:1017500001112046FFF7BBFE98B92369B3F5804F0E
:1017600019D1236845F00105EDB21D613B463246B3
:101770002A492046FFF700FF00284CD104B0BDE8FD
:10178000F08123681B6813F4807F02D04FF400734C
:1017900023640320F2E74FEAE51808F006082368FF
:1017A00048F0F0021A613B4632461D492046FFF7D9
:1017B000E3FE08B10120E1E72368EDB21D613B467D
:1017C000324616492046FFF7D7FE08B10120D5E77B
:1017D000002203922368596903919969039103993F
:1017E000196841F480711960009733464FF0011178
:1017F0002046FFF76CFE20B9226848F0F103136120
:10180000B4E723681B6813F4807F02D04FF40073A1
:1018100023640320B2E70120B0E700BF020001000B
:101820000800010070B504460D46164623685B6942
:1018300013F0800F21D12046FFF730FEF8B9B5F143
:10184000FF3FF3D0FFF7B0FC801BA84201D8002D6A
:10185000ECD123685B6913F0800FE7D10023236389
:10186000202284F83D2084F83E30226C42F0200291
:10187000226484F83C30012000E0002070BD01208B
:10188000FCE770B504460D46164623685B6913F005
:10189000040F21D12046FFF701FEF8B9B5F1FF3F53
:1018A000F3D0FFF781FC801BA84201D8002DECD1BA
:1018B00023685B6913F0040FE7D100232363202220
:1018C00084F83D2084F83E30226C42F020022264ED
:1018D00084F83C30012000E0002070BD0120FCE7CE
:1018E00070B504460D46164614E06FF010025A61BA
:1018F00000232363202284F83D2084F83E30226CAC
:10190000226484F83C30012025E023685B6913F0F1
:10191000400F10D02368586910F0400F1AD1586951
:1019200010F0100FE1D1FFF73FFC801BA842ECD86C
:10193000002DEFD1E9E700232363202284F83D2026
:1019400084F83E30226C42F02002226484F83C305D
:10195000012000E0002070BD002800F0CC8070B5B0
:10196000044690F83D30002B77D0242384F83D3096
:101970002268136823F0010313602268136843F49C
:10198000004313602268136823F40043136000F0DF
:10199000E1FE62685A4B9A4264D85A4B98428CBF17
:1019A00000230123002B40F0A8805749A1FB003100
:1019B0008B0C25686A6822F03F0242EA91426A6015
:1019C00021680A6A22F03F0266684D4DAE424FD848
:1019D000013313430B622168CA6922F44F4222F09B
:1019E000FF026568464B9D424CD8431E6D00B3FB19
:1019F000F5F3013340F6FC70034278D0C3F30B03D8
:101A00001A43CA6121680B6823F0C003E269206AA7
:101A1000024313430B6021688B6823F4034323F0D4
:101A2000FF032269E068024313438B602168CB689F
:101A300023F0FF036269A06902431343CB6022686D
:101A4000136843F00103136000202064202384F80E
:101A50003D30206384F83E0070BD80F83C30FFF7D5
:101A6000A3F882E7294B98428CBF0023012399E712
:101A70004FF4967505FB03F3254DA5FB03539B0916
:101A80000133A6E7A668BEB9431E05EB450CB3FBC0
:101A9000FCF30133C3F30B03B3FA83F35B0943BBDA
:101AA000C6B9431E05EB4505B3FBF5F30133C3F39C
:101AB0000B0343F40043A3E7431E05EB850C0CEB3B
:101AC0008C0CB3FBFCF30133C3F30B03B3FA83F3C6
:101AD0005B09E4E7431E05EB850505EB8505B3FBD4
:101AE000F5F30133C3F30B0343F4404388E70423C6
:101AF00086E7012384E7012070470120ACE700BF9F
:101B0000A08601007F841E0083DE1B43FF083D008A
:101B1000D34D62102DE9F04385B004460F46904640
:101B200099460C9EFFF740FB94F83D10202904D005
:101B30000227384605B0BDE8F0830546009019231A
:101B400001224F492046FFF7C2FC002840F0928056
:101B500094F83C30012B00F08F80012384F83C3056
:101B600023681A6812F0010F03D11A6842F00102CB
:101B70001A602268136823F400631360212384F839
:101B80003D30102384F83E3000232364C4F82480C1
:101B9000A4F82A90638D23853A4BE3622B463246A4
:101BA00039462046FFF754FD0746002866D100233A
:101BB000039323685A6903929B690393039B11E083
:101BC000236C042B01D00127B3E72268136843F488
:101BD00000731360F7E72A4631462046FFF751FEAF
:101BE00000282ED1238D002B36D02A4631462046A0
:101BF000FFF718FE0028E3D1626A236812781A61A1
:101C0000606A431C6362618D89B2013989B2618562
:101C1000238D013B9BB223852268516911F0040F8B
:101C2000D9D0002BD7D043781361636A0133636244
:101C3000638D9BB2013B9BB26385238D013B238562
:101C4000C9E7236C042B01D0012772E722681368CF
:101C500043F400731360F7E72268136843F40073DA
:101C60001360202384F83D30002384F83E3084F84C
:101C70003C305EE702275CE702275AE7012758E776
:101C8000020010000000FFFF2DE9F04387B004467A
:101C90000F46904699460E9EFFF786FA94F83D103F
:101CA000202904D00227384607B0BDE8F083054656
:101CB0000090192301228A492046FFF708FC0028DA
:101CC00040F0508194F83C30012B00F04D8101230D
:101CD00084F83C3023681A6812F0010F03D11A68A7
:101CE00042F001021A602268136823F40063136053
:101CF000222384F83D30102384F83E3000232364EF
:101D0000C4F82480A4F82A90638D2385754BE36280
:101D10002B46324639462046FFF7F4FC074600289A
:101D200040F02481238D5BB9029323685A690292A3
:101D30009A690292029A1A6842F400721A607AE072
:101D4000012B0FD0022B1FD02268136843F480634D
:101D500013600023059323685A6905929B690593D4
:101D6000059B68E02268136823F4806313600023F6
:101D7000039323685A6903929A690392039A1A6833
:101D800042F400721A6056E02268136823F48063FC
:101D900013602268136843F4006313600023049304
:101DA00023685A6904929B690493049B43E02A4682
:101DB00031462046FFF794FD002840F0D980236883
:101DC0001A69636A1A70636A01336362238D013B87
:101DD0002385638D9BB2013B9BB263852BE000950D
:101DE0003346002240492046FFF771FB002840F0AF
:101DF000C1802268136843F40073136023681A6972
:101E0000636A1A70626A531C6362238D013B2385E7
:101E1000638D9BB2013B9BB2638523681B69537042
:101E2000636A01336362238D013B2385638D9BB21B
:101E3000013B9BB26385218D002900F08A80032934
:101E400054D80129B3D00229C9D0009533460022C5
:101E500025492046FFF73BFB002840F08D80226893
:101E6000136823F48063136023681A69636A1A7025
:101E7000636A01336362238D013B2385618D89B2DF
:101E8000013989B261850095334600221649204602
:101E9000FFF71DFB002871D12268136843F400731B
:101EA000136023681A69636A1A70626A531C63625A
:101EB000238D013B2385638D9BB2013B9BB26385E0
:101EC00023681B695370636A01336362238D013B8E
:101ED0002385638D9BB2013B9BB26385ABE700BF5B
:101EE000020010000000FFFF040001002A463146F6
:101EF0002046FFF7F5FC002842D123681A69636A7F
:101F00001A70636A01336362228D013A92B22285AC
:101F1000638D9BB2013B9BB263852368596911F0C5
:101F2000040F88D0032A0FD023681A69636A1A70D5
:101F3000636A01336362238D013B2385638D9BB20A
:101F4000013B9BB2638576E71A6822F480621A60CF
:101F5000EAE7202384F83D30002384F83E3084F8FB
:101F60003C30A0E602279EE602279CE601279AE67F
:101F7000012798E6012796E6012794E6012792E6D5
:101F8000012790E62DE9F04385B004468846914646
:101F90001D46FFF709F994F83D30202B03D00220AD
:101FA00005B0BDE8F083064600901923012256498A
:101FB0002046FFF78CFA002840F09D8094F83C30D2
:101FC000012B00F09A80012384F83C3023681A68C2
:101FD00012F0010F03D11A6842F001021A60226860
:101FE000136823F400631360242384F83D30002732
:101FF0002764464BE3623DE023681B6813F4807F4F
:1020000002D04FF4007323640320C9E7A02384F8AF
:102010003D3022685369C3F340035269C2F3802202
:1020200094F83D10A02909D043B93AB9FFF7BCF89C
:10203000801BA842EAD8002DEBD1E7E7202384F8E3
:102040003D3023685A6912F0020F31D11A6842F408
:1020500000721A6023686FF480625A610096192337
:10206000012229492046FFF732FA002849D10137D9
:102070004F4538D22268136843F48073136000968A
:102080002B4600224FF001112046FFF720FA0028CE
:10209000B2D1236808F0FE021A61FFF785F8064600
:1020A00022685369C3F340035269C2F38022B7E741
:1020B0001A6842F400721A600023039323685A6975
:1020C00003929B690393039B0096192301220E49F7
:1020D0002046FFF7FCF990B9202384F83D30002317
:1020E00084F83C305CE7202384F83D30002384F8FA
:1020F0003C30012054E7022052E7022050E7012043
:102100004EE701204CE700BF020010000000FFFF77
:1021100082B0002100910B4B5A6C42F480425A6409
:102120005A6C02F480420092009A01911A6C42F0BB
:1021300080521A641B6C03F080530193019B02B020
:10214000704700BF00380240002800F0E08170B501
:1021500082B00446036813F0010F3BD09F4B9B688D
:1021600003F00C03042B2CD09C4B9B6803F00C0356
:10217000082B21D06368B3F5803F4FD0B3F5A02F73
:1021800052D0964B1A6822F480321A601A6822F4F0
:1021900080221A606368002B50D0FFF705F80546CF
:1021A0008E4B1B6813F4003F14D1FEF7FDFF401B5C
:1021B0006428F5D90320B1E1884B5B6813F4800FE4
:1021C000D8D0864B1B6813F4003F03D06368002B04
:1021D00000F09F81236813F0020F54D07F4B9B685F
:1021E00013F00C0F3ED07D4B9B6803F00C03082BC3
:1021F00033D0E368002B68D0794B01221A60FEF7D8
:10220000D3FF0546754B1B6813F0020F54D1FEF740
:10221000CBFF401B0228F5D903207FE16F4A1368EA
:1022200043F480331360B5E76C4B1A6842F48022A4
:102230001A601A6842F480321A60ABE7FEF7B4FF06
:102240000546664B1B6813F4003FC3D0FEF7ACFF96
:10225000401B6428F5D9032060E1604B5B6813F4F0
:10226000800FC6D15D4B1B6813F0020F03D0E368EB
:10227000012B40F05081594A136823F0F80321697B
:1022800043EAC1031360236813F0080F42D0636967
:102290006BB3534B0122C3F8802EFEF785FF054632
:1022A0004E4B5B6F13F0020F34D1FEF77DFF401BE6
:1022B0000228F5D9032031E1484A136823F0F803D6
:1022C000216943EAC1031360DDE7454B00221A6030
:1022D000FEF76AFF0546414B1B6813F0020FD2D090
:1022E000FEF762FF401B0228F5D9032016E13C4BA4
:1022F0000022C3F8802EFEF757FF0546374B5B6F71
:1023000013F0020F06D0FEF74FFF401B0228F5D94D
:10231000032003E1236813F0040F77D02F4B1B6CCD
:1023200013F0805F33D1002301932C4B1A6C42F0E1
:1023300080521A641B6C03F080530193019B0125AA
:10234000284B1B6813F4807F23D0A368012B34D063
:10235000052B38D0214B1A6F22F001021A671A6F31
:1023600022F004021A67A368002B3DD0FEF71CFF81
:1023700006461A4B1B6F13F0020F46D1FEF714FFEF
:10238000801B41F288339842F3D90320C6E0002530
:10239000D6E7144A136843F480731360FEF704FF12
:1023A0000646104B1B6813F4807FCED1FEF7FCFE6F
:1023B000801B0228F5D90320B0E0084A136F43F0D0
:1023C00001031367CFE7054B1A6F42F004021A6747
:1023D0001A6F42F001021A67C5E700BF00380240D9
:1023E0000000474200700040FEF7DEFE0646524BFA
:1023F0001B6F13F0020F08D0FEF7D6FE801B41F2D0
:1024000088339842F3D9032088E0EDB9A369002B03
:1024100000F08380484A926802F00C02082A51D0EA
:10242000022B17D0454B00221A66FEF7BDFE04466C
:10243000414B1B6813F0007F42D0FEF7B5FE001B36
:102440000228F5D9032069E03B4A136C23F080533E
:102450001364DBE7394B00221A66FEF7A5FE05463A
:10246000354B1B6813F0007F06D0FEF79DFE401B26
:102470000228F5D9032051E0E369226A1343626A16
:1024800043EA8213A26A5208013A43EA0243E26A2B
:1024900043EA0263284A5360284B01221A66FEF77A
:1024A00083FE0446244B1B6813F0007F06D1FEF721
:1024B0007BFE001B0228F5D903202FE000202DE031
:1024C00000202BE0012B2BD01B4B5B6803F4800119
:1024D000E269914226D103F03F02216A8A4223D168
:1024E000616A47F6C0721A40B2EB811F1ED103F435
:1024F0004031A26A5208013AB1EB024F18D103F001
:102500007063E26AB3EB026F14D1002006E0012091
:102510007047012002E0012000E0002002B070BD01
:102520000120FBE70120F9E70120F7E70120F5E7AB
:102530000120F3E70120F1E70038024000004742A4
:1025400008B5264B9B6803F00C03042B41D0082BE5
:1025500041D1224B5A6802F03F025B6813F4800FAE
:1025600012D01E4B5968C1F388111D480023A1FBEE
:102570000001FEF79BFA194B5B68C3F3014301337B
:102580005B00B0FBF3F008BD144B5868C0F3881033
:102590004FEA401CBCEB000C6EEB0E0E4FEA8E13A4
:1025A00043EA9C634FEA8C11B1EB0C0163EB0E0321
:1025B000DB0043EA5173C90011EB000C43F1000347
:1025C000990200234FEA8C2041EA9C51FEF76EFAF3
:1025D000D1E70348D7E70348D5E700BF00380240FA
:1025E00040787D010024F400002800F09B8070B545
:1025F0000D4604464F4B1B6803F007038B4208D27D
:10260000CBB24C4A1370136803F007038B4240F0BF
:102610008B80236813F0020F17D013F0040F04D03F
:10262000454A936843F4E0539360236813F0080F1E
:1026300004D0414A936843F4604393603E4A9368F0
:1026400023F0F003A1680B439360236813F0010F9C
:1026500032D06368012B21D09A1E012A25D9364A2F
:10266000126812F0020F61D033498A6822F0030227
:1026700013438B60FEF798FD06462F4B9B6803F0D3
:102680000C036268B3EB820F16D0FEF78DFD801B42
:1026900041F288339842F0D9032042E0264A12687A
:1026A00012F4003FE0D101203BE0234A126812F00F
:1026B000007FD9D1012034E01E4B1B6803F00703D3
:1026C000AB4207D9EAB21B4B1A701B6803F0070331
:1026D000AB422DD1236813F0040F06D0164A93683D
:1026E00023F4E053E1680B439360236813F0080F71
:1026F00007D0114A936823F46043216943EAC10378
:102700009360FFF71DFF0C4B9B68C3F303130B4A49
:10271000D35CD8400A4B18600A4B1868FEF7F8FCE7
:10272000002070BD012070470120FAE70120F8E782
:102730000120F6E7003C024000380240A8400008B3
:102740000800002004000020014B1868704700BFFB
:102750000800002008B5FFF7F7FF044B9B68C3F3A0
:102760008223034AD35CD84008BD00BF0038024032
:10277000A040000808B5FFF7E7FF044B9B68C3F3D0
:102780004233034AD35CD84008BD00BF0038024042
:10279000A0400008026802F10C0353E8003F23F454
:1027A00090730C3242E800310029F3D1026802F143
:1027B000140353E8003F23F00103143242E80031D0
:1027C0000029F3D1036B012B05D0202380F8423080
:1027D000002303637047026802F10C0353E8003FD3
:1027E00023F010030C3242E800310029F3D1ECE76A
:1027F00010B504460268136923F44053C1680B43C3
:102800001361836802691A4343691A43C3691A430F
:102810000168CB6823F4164323F00C031343CB6009
:102820000268536923F4407381690B435361036861
:10283000314A934206D002F58062934202D0FFF7FC
:1028400089FF01E0FFF796FFE369B3F5004F29D058
:102850000021031849411B1841F10001C90041EA58
:102860005371DB00181863684FEA83024FEA9373D1
:1028700041F10001FEF71AF9204AA2FB0031490993
:10288000642303FB11031B013233A2FB03235B0907
:1028900003F0F00202EB011203F00F03216813446E
:1028A0008B6010BD0023021843EB0301121841F1A5
:1028B0000001C90041EA5271D200101841F1000133
:1028C000626892185B41FEF7F1F80C4AA2FB0031F6
:1028D0004909642303FB1103DB003233A2FB03230A
:1028E0005B095A0002F4F87202EB011203F00703CD
:1028F000216813448B60D4E7001001401F85EB5121
:102900002DE9F04383B005460E4617469946DDF89B
:1029100028802B681C6836EA04040CBF01240024BC
:10292000BC4228D1B8F1FF3FF3D0FEF73DFCA0EB4D
:102930000900404523D8B8F1000F22D02B68DA688F
:1029400012F0040FE5D0802EE3D0402EE1D01A68BB
:1029500012F0080FDDD0002401941A6801925B6820
:102960000193019B2846FFF715FF08236B6485F848
:102970004040012000E0002003B0BDE8F0830320C8
:10298000FAE70320F8E760B310B5044690F8413049
:1029900013B3242384F841302268D36823F400530E
:1029A000D3602046FFF724FF2268136923F4904385
:1029B00013612268536923F02A0353612268D368A4
:1029C00043F40053D36000206064202384F8413036
:1029D00084F84230606310BD80F8403000F0D8F8D1
:1029E000D7E7012070472DE9F04182B01E4690F8EC
:1029F0004130202B56D104460D469046002955D033
:102A00000AB901204FE000234364212380F84130BC
:102A1000FEF7CAFB0746A4F82480A4F82680A36822
:102A2000B3F5805F02D04FF0000814E023692BB3A8
:102A30004FF000080FE0202384F84130032032E0FB
:102A400038F8023B2268C3F308035360E28C92B269
:102A5000013A92B2E284E38C9BB293B100963B467A
:102A6000002280212046FFF74BFF0028E3D1002DF4
:102A7000E6D015F8012B23685A60E7E7A846002541
:102A8000E9E700963B46002240212046FFF738FF49
:102A900018B9202384F8413005E0202384F8413020
:102AA000032000E0022002B0BDE8F0810120FAE737
:102AB000FEE7FEE7FEE7FEE7FEE770477047704778
:102AC00008B5FEF765FB08BD70B50C461646002537
:102AD00006E0AFF30080214601F8010B01350C46FA
:102AE000B542F6DB304670BD4FF0FF3070474FF413
:102AF00000534B6000207047012070470020704752
:102B000010B503460C4A0D490D48006840B10C4809
:102B100000680344521A934206D8094A136010BD54
:102B20000748084C0460F2E700F0ECFA0C2303605D
:102B30004FF0FF30F3E700BF000002200004000068
:102B4000E800002080020020034AD2F8883043F4D5
:102B50007003C2F88830704700ED00E008B50A48FD
:102B60000A4B03604FF4E133436000238360C3608A
:102B700003610C2242618361C361FFF704FF00B966
:102B800008BDFEF77FF9FBE7EC00002000440040A1
:102B900000B589B00023039304930593069307932C
:102BA0000268154B9A4202D009B05DF804FB00217F
:102BB000019103F5FA331A6C42F400321A641A6C6C
:102BC00002F400320192019A02911A6B42F0010262
:102BD0001A631B6B03F001030293029B0C23039304
:102BE00002230493032306930723079303A90348AF
:102BF000FEF75EFBD8E700BF004400400000024043
:102C0000DFF834D0FFF7A0FF0C480D490D4A002330
:102C100002E0D458C4500433C4188C42F9D30A4A91
:102C20000A4C002301E013600432A242FBD300F0FF
:102C30006FFAFEF76DF970470000022000000020D7
:102C400068000020FC40000868000020800200208E
:102C5000FEE70000002310B50446C0E90033C0E9D8
:102C60000433836081814366C281836119460822EF
:102C70005C3000F0F9F90D4B63620D4BA3620D4B14
:102C8000E3620D4B23630D4B24629C4206D003F19B
:102C90006802944202D0D0339C4205D104F158001E
:102CA000BDE8104000F058BA10BD00BFBD2E0008AE
:102CB000DF2E0008172F00083D2F000834010020E8
:102CC000024A0349034800F06BB800BF0C00002023
:102CD000F53900081C00002041680C4B994210B5E2
:102CE000044601D000F086FEA168094B994202D04B
:102CF000204600F07FFEE168064B994204D0204652
:102D0000BDE8104000F076BE10BD00BF34010020C9
:102D10009C010020040200200C4B0D4A0D4810B508
:102D200004211A600022FFF795FF0A4B01221C467E
:102D3000092103F16800FFF78DFF04F1D0000222A2
:102D4000BDE810401221FFF785BF00BF6C020020D4
:102D5000C12C000834010020014800F0FEB900BF7A
:102D600075020020014800F0F9B900BF750200208B
:102D700010B50446FFF7F0FF236A1BB1BDE8104011
:102D8000FFF7F0BF044B2362044B1B68002BF5D107
:102D9000FFF7C2FFF2E700BFD92C00086C02002049
:102DA0002DE9F8430746884614460026D4E90195E4
:102DB000B9F1010905D52468002CF7D13046BDE8EA
:102DC000F883AB89012B07D9B5F90E30013303D055
:102DD00029463846C04706436835E9E70FB407B5CA
:102DE000064904AB086853F8042B8168019300F08E
:102DF000D9FA03B05DF804EB04B070471800002066
:102E0000036A70B5846805460E460BB9FFF7B0FF3C
:102E1000636EDB0705D4A389980502D4A06D00F08A
:102E20009CF9A389190702D52369002B35D12146C6
:102E3000284600F0C5F880B34FF0FF35636EDA071F
:102E400005D4A3899B0502D4A06D00F087F928461C
:102E500070BD002B04DAA269934217DB0A2915D052
:102E600023685A1C22601970A36816F8011F013BE1
:102E7000A3600029EDD1002B11DA22460A21284651
:102E800000F060F80130D7D00A25D7E7224628465F
:102E900000F058F80130E7D1CEE7013EE4E72368BF
:102EA0005A1C22600A221A70EEE70000024B01460B
:102EB0001868FFF7A5BF00BF1800002010B50C462A
:102EC000B1F90E1000F0FAF80028ABBF636DA389CA
:102ED0001B1823F48053ACBF6365A38110BD2DE99B
:102EE000F0411F468B89DB0505460C46164605D585
:102EF000B1F90E100223002200F0CEF8A389B4F934
:102F00000E1023F48053A38132463B462846BDE889
:102F1000F04100F0E5B810B50C46B1F90E1000F024
:102F2000BBF8B4F90C30421C0BBF23F4805343F4BC
:102F30008053A381A38118BF606510BDB1F90E1045
:102F400000F09AB8F8B50E461446054618B1036A63
:102F50000BB9FFF70DFFA369A360A3891A0701D579
:102F6000236943B92146284600F02AF818B14FF0EA
:102F7000FF373846F8BD23682269981A6369F6B2AC
:102F80008342374605DC2146284600F033FD002801
:102F9000EDD1A368013BA36023685A1C22601E7018
:102FA0006269431C9A4204D0A389DB07E1D50A2E4B
:102FB000DFD12146284600F01DFD0028D9D0D6E7F4
:102FC00038B5284B054618680C4618B1036A0BB98A
:102FD000FFF7CEFEB4F90C301A0721D4D80607D477
:102FE00009222A6043F04003A3814FF0FF3030E014
:102FF000590712D5616B41B104F14403994202D0E3
:10300000284600F0ADF8002363630022B4F90C30C9
:1030100062602269226023F0240343F00803A38145
:1030200022693AB99A0501D5180603D521462846E2
:1030300000F02CFDB4F90C3013F001020AD000228C
:10304000A26062695242A261226942B913F0800013
:10305000C8D138BD990758BF6269A260F4E7002063
:10306000F7E700BF1800002002440346934200D156
:10307000704703F8011BF9E738B5064D00230446F5
:1030800008462B60FFF730FD431C02D12B6803B1CB
:10309000236038BD7002002038B5074D044608464D
:1030A000114600222A601A46FFF728FD431C02D170
:1030B0002B6803B1236038BD7002002038B5074D7E
:1030C00004460846114600222A601A46FFF7FCFC17
:1030D000431C02D12B6803B1236038BD700200206D
:1030E00038B5074D04460846114600222A601A46A4
:1030F000FDF7BCFE431C02D12B6803B1236038BD31
:1031000070020020014B1868704700BF18000020B3
:1031100070B50D4B0D4D5B1B9C100026A64209D1CE
:1031200000F09CFE0A4D0B4B5B1B9C100026A64238
:1031300005D170BD55F8043B98470136EEE755F8C8
:10314000043B98470136F2E7F4400008F4400008D9
:10315000F4400008F84000087047704770470000CE
:1031600038B50546002941D051F8043C0C1F002B0E
:10317000B8BFE41800F0E0F81D4A136833B9636083
:1031800014602846BDE8384000F0DCB8A34208D9F6
:10319000206821188B4201BF19685B6809182160FB
:1031A000EDE71A465B680BB1A342FAD911685018D3
:1031B000A0420BD120680144501883421160E0D135
:1031C00018685B68536008441060DAE702D90C2382
:1031D0002B60D6E7206821188B4204BF19685B6812
:1031E000636004BF091821605460CAE738BD00BF9E
:1031F0007C02002070B50F4E0C463168054611B9AF
:1032000000F0A0FC30602146284600F09BFC431CE7
:1032100003D14FF0FF34204670BDC41C24F00304DA
:10322000A042F8D0211A284600F08CFC0130F2D1DF
:10323000EFE700BF780200202DE9F843CD1C25F010
:10324000030508350C2D38BF0C25002D064601DB83
:10325000A94204D90C2333600020BDE8F883DFF8CD
:10326000D48000F069F8D8F800301C4644BB2946E9
:103270003046FFF7BFFF431C044658D1D8F8004042
:103280002746002F43D1002C4BD0236839463046C7
:1032900004EB030900F056FC814542D121686D1A08
:1032A00029463046FFF7A6FF01303AD023682B4469
:1032B0002360D8F800305A6862BBC8F800700FE08D
:1032C0002268521B20D40B2A17D96119A34225600A
:1032D00018BF5960636808BFC8F8001062514B609E
:1032E000304600F02FF804F10B00231D20F00700FA
:1032F000C21A1CBF1B1AA350AFE76268A3420CBFDF
:10330000C8F800205A60EBE723466468AEE73C4605
:103310007F68B6E71A465B68A342FBD1002353607F
:10332000DEE70C233360304600F00CF894E70560CC
:10333000D6E700BF7C0200200148FFF70EBF00BFA8
:10334000740200200148FFF709BF00BF740200208B
:103350009368013B002B10B4936008DA9469A34290
:1033600001DB0A2903D15DF8044BFFF7EBBD1368BD
:10337000581C1060197008465DF8044B7047F8B58A
:1033800006460F461446D518AC4201D1002007E08E
:1033900014F8011B3A463046FFF7DAFF431CF3D11D
:1033A000F8BD00002DE9F04F0D469DB0144698463B
:1033B000064618B1036A0BB9FFF7DAFC6B6ED90742
:1033C00005D4AB899A0502D4A86DFFF7C6FEAB8978
:1033D0001B0701D52B699BB929463046FFF7F0FD45
:1033E00070B16B6EDC0704D54FF0FF301DB0BDE847
:1033F000F08FAB899805F7D4A86DFFF7AFFEF3E720
:103400000023099320238DF82930CDF80C80302338
:10341000DFF8AC818DF82A304FF0010923469A4637
:1034200013F8012B0AB1252AF9D1BAEB040B0BD002
:103430005B46224629463046FFF7A1FF013000F0E7
:10344000A780099A5A4409929AF80030002B00F09C
:103450009F8000234FF0FF32CDE905230AF1010AD6
:10346000049307938DF853301A935446052214F8A9
:10347000011B5348FCF78CFE049AD8B9D10644BF0F
:1034800020238DF85330130744BF2B238DF853307E
:103490009AF800302A2B15D0079A544600204FF096
:1034A0000A0C214611F8013B303B092B4BD9B0B136
:1034B000079214E0A0EB080309FA03F31343049303
:1034C000A246D2E7039B191D1B680391002BBBBFCB
:1034D0005B4242F0020207930793B8BF049223783D
:1034E0002E2B0AD163782A2B32D1039B1A1D1B681D
:1034F000039243EAE37302340593DFF8D4A0217802
:1035000003225046FCF744FE38B1049BA0EB0A00AE
:103510004022824013430134049314F8011B2948CC
:103520008DF828100622FCF733FE00283FD0264BEA
:103530001BBB039B073323F0070308330393099B4B
:103540003B4409936AE70CFB02320C460120A8E7D2
:1035500000230134059319464FF00A0C204610F859
:10356000012B303A092A03D9002BC6D00591C4E7B4
:103570000CFB012104460123F0E703AB00932A462C
:10358000124B04A93046AFF300800746781CD6D111
:103590006B6ED90705D4AB899A0502D4A86DFFF7E5
:1035A000DDFDAB895B063FF51FAF09981EE703AB56
:1035B00000932A46054B04A9304600F079F8E4E769
:1035C000B8400008C2400008000000007F33000837
:1035D000BE4000082DE9F047164698468A680B69F8
:1035E000DDF820909342B8BF1346336091F8432032
:1035F00007460C460AB1013333602368990642BF7F
:10360000336802333360256815F0060506D104F1EE
:10361000190AE36832689B1AAB4226DC94F84330FF
:103620002268003B18BF012392062BD404F1430209
:1036300041463846C84701301ED02368226903F04E
:103640000603042B02BFE5683368ED1AA3680CBFBC
:1036500025EAE57500259342C4BF9B1AED180026A4
:103660001A34B5421AD1002008E0012352464146DF
:103670003846C847013003D14FF0FF30BDE8F0872E
:103680000135C6E7E1185A1C302081F84300224476
:1036900094F8451082F843100233C7E7012322460D
:1036A00041463846C8470130E6D00136D9E7000028
:1036B0002DE9FF470F7E0C9E782F914680460C46E1
:1036C0009A4601F1430207D8622F0AD8002F00F072
:1036D000D280582F00F0B78004F1420684F842707F
:1036E0003AE0A7F16303152BF6D801A151F823F0B6
:1036F000493700085D370008D9360008D936000878
:10370000D9360008D93600085D370008D9360008D8
:10371000D9360008D9360008D93600085D380008C7
:103720008737000813380008D9360008D936000852
:103730007F380008D936000887370008D9360008D6
:10374000D93600081B38000833681A1D1B68326020
:1037500004F1420684F8423001239DE0336820687A
:10376000191D3160060601D51D6803E04506FBD52D
:10377000B3F90050002D03DA2D236D4284F8433055
:1037800059480A2310E021683368080653F8045B9F
:1037900002D4490648BFADB26F2F5348336059D1A8
:1037A0000823002184F843106668A660002E05DB1C
:1037B00021682E4321F0040121604DD01646B5FB4F
:1037C000F3F103FB1157C75D06F8017D2F46BB429D
:1037D0000D46F4D9082B0BD12368DF0708D52369E0
:1037E00061689942DEBF302306F8013C06F1FF36DE
:1037F000921B2261CDF800A04B4603AA2146404609
:10380000FFF7E8FE01304CD14FF0FF3004B0BDE8C7
:10381000F087236843F0200323603448782784F836
:103820004570236831681F0651F8045B02D45F06B7
:1038300048BFADB23160D90744BF43F020032360D5
:103840001DB11023ADE72848E9E7236823F02003E2
:103850002360F6E70A23A4E71646BBE7336825682A
:103860006169181D30602E061B6801D5196002E0E1
:103870006806FBD51980002323611646BAE7336832
:103880001A1D32601E68626800213046FCF780FC19
:1038900008B1801B606063682361002384F84330B3
:1038A000A8E72369324649464046D0470130ABD0AD
:1038B00023689B0713D4E068039B9842B8BF18465F
:1038C000A4E70123324649464046D04701309BD009
:1038D0000135E36803995B1AAB42F2DCEBE70025A4
:1038E00004F11906F5E700BFC9400008DA400008F6
:1038F000B1F90C202DE9F041160705460C4651D4CC
:103900004B68002B02DC0B6C002B49DDE66A002EB5
:1039100046D0002312F480522F682B6031D0626DA4
:10392000A389590705D56368D21A636B0BB1236C61
:10393000D21A0023E66A216A2846B047421CB4F92D
:103940000C3006D129681D2946D8294ACA40D60715
:1039500042D500226260D9042269226004D5421C4B
:1039600001D12B6803B96065616B2F60C1B104F1AF
:103970004403994202D02846FFF7F2FB0023636319
:103980000EE0216A01232846B0470246501CC7D1E9
:103990002B68002BC4D01D2B01D0162B1AD12F6001
:1039A00000201EE00F69002FFAD093070E6808BFB1
:1039B0004B690F6018BF0023A6EB07088B60B8F1B6
:1039C000000FEDDD216AA66A43463A462846B04715
:1039D000002808DCB4F90C3043F04003A3814FF019
:1039E000FF30BDE8F0810744A8EB0008E7E700BF1F
:1039F0000100402038B50B6905460C4613B9002577
:103A0000284638BD18B1036A0BB9FFF7B1F9B4F90C
:103A10000C30002BF3D0626ED00704D4990502D489
:103A2000A06DFFF79AFB28462146FFF761FF636E02
:103A3000DA070546E4D4A3899B05E1D4A06DFFF71E
:103A40008DFBDDE770B50C46B1F90E10002996B07C
:103A500015461E460ADAA18911F0800113D14FF4F0
:103A60008062002031602A6016B070BD6A4600F0A6
:103A700047F80028EFDB019901F47041A1F50053EC
:103A800059425941EBE700214022EAE78B8973B59F
:103A90009E0705460C4607D504F1470323602361C2
:103AA0000123636102B070BD01AB6A46FFF7CAFF34
:103AB000009E28463146FFF7BFFBB4F90C3038B9F9
:103AC0009A05EFD423F0030343F00203A381E3E755
:103AD00043F08003A381019B2060C4E90406002B0E
:103AE000E0D0B4F90E10284600F01CF80028D9D018
:103AF000A38923F0030343F00103A381D2E700006D
:103B000038B5074D00230446084611462B60FEF7E2
:103B1000EEFF431C02D12B6803B1236038BD00BF08
:103B20007002002038B5064D0023044608462B607D
:103B3000FEF7E2FF431C02D12B6803B1236038BDBE
:103B40007002002038B5064D0023044608462B605D
:103B5000FEF7D6FF431C02D12B6803B1236038BDAA
:103B6000700200202DE9F047089D0F4604468C4660
:103B7000002B48D18A42164661D9B2FA82F34BB182
:103B8000C3F1200201FA03FC20FA02F29E4042EA4D
:103B90000C0C9C404FEA164EB7B2BCFBFEF1220C57
:103BA0000EFB11CC42EA0C4201FB07F0904209D90E
:103BB000B21801F1FF3C80F0EE80904240F2EB80C1
:103BC00002393244121AA4B2B2FBFEF00EFB1022EC
:103BD00044EA024400FB07F7A74209D9341900F16F
:103BE000FF3280F0DA80A74240F2D78034440238B6
:103BF00040EA0140E41B00211DB1DC400023C5E97F
:103C00000043BDE8F0878B4206D90DB1C5E900013C
:103C100000210846BDE8F087B3FA83F1002948D1B6
:103C2000BB4202D3824200F20781841A67EB03028F
:103C300001209446002DE4D0C5E9004CE1E7002ABC
:103C400000F09280B2FA82F3002B40F0A8808A1A2A
:103C50004FEA164E1FFA86FC0121200CB2FBFEF73C
:103C60000EFB172240EA02420CFB07F0904207D9F4
:103C7000B21807F1FF3802D2904200F2E2804746C4
:103C8000121AA4B2B2FBFEF00EFB102244EA024468
:103C90000CFB00FCA44507D9341900F1FF3202D215
:103CA000A44500F2CB801046A4EB0C0440EA074088
:103CB000A2E7C1F120068B4022FA06FC4CEA030C75
:103CC00007FA01F420FA06F3F7404FEA1C492343B0
:103CD00000FA01F81FFA8CFEB7FBF9F01C0C09FB87
:103CE000107744EA074400FB0EF7A74202FA01F2FC
:103CF0000AD91CEB040400F1FF3A80F09B80A74234
:103D000040F2988002386444E41B9FB2B4FBF9F39C
:103D100009FB134447EA044403FB0EFEA64509D9F8
:103D20001CEB040403F1FF3780F08280A6457FD9A5
:103D3000023B644443EA0040A4EB0E04A0FB02E70C
:103D4000BC427346B94663D360D05DB1B8EB0302A1
:103D500064EB090404FA06F622FA01F31E43CC4090
:103D6000C5E9006400214CE76208480842EAC171D5
:103D70000B0C43EA00438AB242EA0342B3FBF6F17A
:103D8000E407B4463746B6461F23B0FBF6F0D21B15
:103D900041EA004161E7614614E7104628E7C3F1B4
:103DA000200120FA01F29E4027FA01F19F403A4398
:103DB0004FEA164E1FFA86FCB1FBFEF70EFB1710FA
:103DC000110C41EA004107FB0CF8884504FA03F4A2
:103DD0003AD9711807F1FF3001D288451FD8A1EBFD
:103DE0000801B1FBFEF808FB0CF70EFB181192B2AC
:103DF00042EA0142BA422FD2B21808F1FF31C6D2CC
:103E0000BA42C4D2A8F102013244C0E7F0459CD2C4
:103E1000BEEB020367EB0C070138B94695E7A6EB4A
:103E200008084144B81EB1FBFEF808FB0CF7DCE7BC
:103E30003B467FE7504667E70846FBE634440238D6
:103E400032E7023F32441BE7A1EB08013846B1FBE1
:103E5000FEF808FB0CF7C8E7414698E7F8B500BF45
:103E6000F8BC08BC9E467047F8B500BFF8BC08BC5B
:043E70009E467047B3
:103E74007265736574207772697465207375636302
:103E84006573730072657365742077726974652055
:103E94006661696C6564000000000000726573650A
:103EA40074207375636365737300000072657365D2
:103EB40074206661696C6564000000005363616E80
:103EC4006E696E6720493243206275732E2E2E0070
:103ED40044657669636520666F756E64206174203D
:103EE4003078253032580A005374617274696E67F1
:103EF40020494E4132313920746573742E2E2E00C0
:103F0400494E41323139206174203078343020698F
:103F14006E697420737563636573732E000000000B
:103F2400494E41323139206174203078343020696F
:103F34006E6974206661696C65642E00494E413275
:103F44003139206174203078343120696E697420ED
:103F5400737563636573732E00000000494E41322C
:103F64003139206174203078343120696E697420CD
:103F74006661696C65642E0053756363657373666B
:103F8400756C20636F6E66696775726174696F6EB4
:103F9400206F6620696E6131210D0000436F6E66EB
:103FA400696775726174696F6E206572726F7220D1
:103FB4006F6620696E6131210D00000053756363E3
:103FC40065737366756C20636F6E6669677572617D
:103FD40074696F6E206F6620696E6132210D000076
:103FE400436F6E66696775726174696F6E2065727E
:103FF400726F72206F6620696E6132210D000000BD
:10400400494E4131202830783430293A20427573A2
:104014003D256956205368756E743D2569562043C5
:10402400757272656E743D25694120506F776572B3
:104034003D2569570A000000494E41322028307856
:104044003431293A204275733D25695620536875E9
:104054006E743D2569562043757272656E743D25F4
:10406400694120506F7765723D2569570A00000049
:104074002D2D2D2D2D2D2D2D2D2D2D2D2D2D2D2D6C
:104084002D2D2D2D2D2D2D2D2D2D2D2D2D2D2D2D5C
:104094002D2D2D2D2D2D2D2D2D2D2D00000000002D
:1040A40001020304000000000000000001020304F8
:1040B40006070809232D302B2000686C4C00656628
:1040C4006745464700303132333435363738394165
:1040D400424344454600303132333435363738397B
:0840E40061626364656600007F
:0840EC00A4C0FF7F01000000E9
:0440F400050B0008B0
:0440F800E10A0008D1
:1040FC009F390100100000000024F40000000000B3
:10410C0003000000340100201C000020000000000F
:10411C00340100209C01002004020020000000005B
:10412C000000000000000000000000000000000083
:10413C000000000000000000000000000000000073
:10414C000000000000000000000000000000000063
:08415C0000000000000000005B
:0400000508002C01C2
:00000001FF
